:020000040800F2
:10000000880700200101000811430008C13D0008D5
:100010000D430008850900081D510008000000007C
:100020000000000000000000000000008144000803
:100030003D0F00080000000041440008D9440008BA
:100040001B0100081B0100081B0100081B01000820
:100050001B0100081B0100081B0100081B01000810
:100060001B0100081B0100081B0100081B01000800
:100070008909000899090008A9090008B9090008B8
:100080001B0100081B0100081B0100081B010008E0
:100090001B0100081B0100081B0100081B010008D0
:1000A0001B0100081B0100081B0100085145000846
:1000B000614500081B010008714500081B0100088C
:1000C0001B0100081B0100081B0100081B010008A0
:1000D0001B010008FD5000081B0100080D5100081D
:1000E0001B0100081B0100081B010008DFF80CD0F1
:1000F00000F026FC00480047C55300088807002090
:100100000648804706480047FEE7FEE7FEE7FEE7B1
:10011000FEE7FEE7FEE7FEE7FEE7FEE74D450008E7
:10012000ED000008D2B201E000F8012B491EFBD21D
:1001300070470022F6E710B513460A4604461946F2
:10014000FFF7F0FF204610BDF0B480EA0102D40FA3
:100150004200B2EB410F02D20246084611464A0065
:1001600042D0C30DDDB2C1F3C752AD1A202D35DA2E
:10017000C1F3160141F4000204B15242C5F1200658
:1001800002FA06F12A411044B3EBD05F23D0C4B188
:10019000012DA0EBC35009DCF0BC4FF0004202EA95
:1001A000C352DBB200F5000000F02EBA400000F1AF
:1001B000807000EBC350A0F1807040EAD17049001C
:1001C00009E0490841EAC071A0EBC35000F5000006
:1001D000400800EBC350F0BC00F00DBA61420122B0
:1001E00002EB4101001BF6E7F0BC704781F00041D3
:1001F000AAE780F00040A7E780EA010210B502F00C
:100200000043400022D04A001FD0010E01EB1261D2
:10021000C0F35600C2F3560240F4000042F400025C
:10022000A0FB022000047F39140400D0401C50EAD7
:10023000124001D44000491EC2B20C0604EBD0109B
:10024000401C4008802A02D003E0002010BD20F0AE
:100250000100002900DA0020184310BD30B480EA04
:10026000010202F0004530F0004221F0004013D0BE
:1002700090B1C30DD40DC2F31601C0F31600E41AF9
:1002800041F4000140F400027D34914201D3641C2A
:1002900000E04900002C02DA30BC002070474FF427
:1002A00000000023914201D3891A034340084FEA1A
:1002B0004101F7D151B1914202D14FF0004105E027
:1002C00002D24FF0010101E06FF0010103EBC450D5
:1002D000284430BC00F08FB92DE9FE4F804681EAFA
:1002E0000300C00F0C46009021F0004123F00045B0
:1002F000B8EB0200A94105D24046214690461C4673
:100300000B46024623F00040104347D0270DC7F3A9
:100310000A00C3F30A510290401A019040286BDA98
:10032000C3F3130040F4801B0098924620B10023D1
:10033000D2EB030A63EB0B0B01985946C0F1400264
:10034000504600F037F906460D4650465946019A88
:1003500000F03FF910EB08006141002487EA1152D8
:1003600084EAE7731A4340D0009A62B3019A012AE3
:100370004FEA075215DC001B61EB02014FF000420F
:1003800002EA0752CDE90042001C41F580113246D5
:100390002B4600F076F903B0BDE8F08F40462146C9
:1003A000F9E7001B61EB0201001C41F58013001806
:1003B0005B412018A2F5001747EB030140EAD57016
:1003C000B6196D4111E06D084FEA360645EAC07571
:1003D0004FEA0752001B61EB0201001C41F580113E
:1003E00049084FEA30000019514132462B4603B00C
:1003F000BDE8F04F00F036B900980122400000231C
:10040000D0EB020263EBE073009821464FEAE07400
:10041000B8EB000061EB0401E9E783F000435BE720
:1004200081F0004158E7002801DBC0F100400029BD
:1004300001DBC1F10041814201D801207047002059
:100440007047002801DBC0F10040002901DBC1F149
:100450000041814201D201207047002070470028EE
:1004600001DBC0F10040002901DBC1F10041814204
:1004700001D30120704700207047C10F80EAE0706F
:100480000844CA079623002100F0BEB89623002234
:10049000114600F0B9B800F0004220F00040C10D54
:1004A000C0F3160040F400007F2901DA00207047F5
:1004B000962903DCC1F19601C84001E096398840D5
:1004C000002AF4D04042704700F0004230F0004073
:1004D0000AD0C10D01F56071C0F3160042EA015166
:1004E000C20840071143704700200146704701F0E1
:1004F000004330B421F0004150EA010206D00A0D59
:10050000A2F56072C1F31301002A02DC30BC0020A6
:100510007047440F44EAC104C100E01830BC00EB4E
:10052000C25000F068B830B50B46014600202022CA
:10053000012409E021FA02F59D4205D303FA02F5F0
:10054000491B04FA02F52844151EA2F10102F1DC50
:1005500030BD2DE9F05F0546002092469B46884657
:100560000646814640241BE028464146474622462F
:1005700000F0F8F953465A46C01A914110D311467B
:100580001846224600F016F82D1A67EB01084F4670
:1005900022460120002100F00DF817EB00094E4122
:1005A000201EA4F10104DFDC484631462A464346BA
:1005B000BDE8F09F202A04DB203A00FA02F1002077
:1005C00070479140C2F1200320FA03F31943904091
:1005D0007047202A06DBCB17203A41FA02F043EAA3
:1005E000E07306E041FA02F3D040C2F120029140EC
:1005F0000843194670470029A8BF7047401C4900AE
:1006000008BF20F00100704710B4B0FA80FC00FA77
:100610000CF050EA010404BF10BC704749B1CCF1A2
:10062000200421FA04F411FA0CF118BF012121432E
:100630000843A3EB0C01CB1D4FEA00614FEA1020E9
:1006400042BF002010BC704700EBC350104400298B
:10065000A4BF10BC7047401C490008BF20F0010037
:1006600010BC704710B5141E73F1000408DA401C6A
:1006700041F1000192185B411A4301D120F00100C1
:1006800010BD2DE9F04D92469B4611B1B1FA81F2B1
:1006900002E0B0FA80F220329046FFF78BFF04466A
:1006A0000F4640EA0A0041EA0B0153465A46084306
:1006B00013D0114653EA010019D0C8F14002504648
:1006C00000F050F905460E46504659464246FFF79F
:1006D00071FF084305D0012004E020463946BDE8FB
:1006E000F08D0020054346EAE0762C4337430A9814
:1006F0006305E40AA0EB08000022FD0A44EA47541F
:100700000A3002D500200146E9E7010510196941C8
:10071000DDE9084500196941BDE8F04DA2E72DE982
:10072000FE4F81EA030404F0004421F000410094EC
:100730004FF0000B23F0004350EA01045ED052EA70
:1007400003045BD0C3F30A54C1F30A552C44A4F24A
:10075000F3340194A0FB0254C1F3130141F480115E
:10076000C3F3130343F4801301FB024400FB034E65
:10077000840A970A44EA815447EA8357A4FB07682E
:1007800002958D0A05FB07854FEA932C04FB0C5458
:100790002705029D4FEA065847EA1637B5EB0805CC
:1007A0006EEB070C870E920E47EA811742EA83121E
:1007B000A7FB0201B6EB0B0164EB00042B0D43EA2F
:1007C0000C335E1844EB1C50DA465146E7FB02013D
:1007D000C5F313044FEA0B3343EA14534FEA0432D0
:1007E000019C43EA0603A4F10C040294009CCDE9A9
:1007F00000B4FFF746FF03B0BDE8F08F00200146CC
:10080000F9E72DE9F04D81EA030404F0004B21F0F3
:10081000004514464FF0000A23F0004150EA05025B
:1008200020D054EA01021DD0C5F30A570246C5F391
:100830001303C1F31300C1F30A5640F4801543F4C7
:100840008013A7EB0608101BD64608F2FD3873EBA1
:10085000050002D308F1010801E092185B41B8F1EC
:10086000000F03DA00200146BDE8F08D00204FF4B0
:100870008011064684460EE0171B73EB050705D36F
:10088000121B63EB050306434CEA010C49084FEACF
:10089000300092185B4150EA0107EDD152EA0300A3
:1008A00012D082EA040083EA0501084305D0101B38
:1008B000AB4106D20122002306E000224FF00043A4
:1008C00002E06FF0010253101AEB06004CEB0851E6
:1008D00010EB0A0041EB0B01BDE8F04DFFF7C2BE83
:1008E000C1F30A52C1F3130140F2FF3341F4801106
:1008F0009A4202DA00200146704740F233439A429E
:10090000A2F2334202DC524200F02CB8FFF752BE92
:1009100030B5041E71F1000404DB4FF00044404286
:1009200064EB0101141E73F1000405DB1C464FF05B
:100930000043524263EB0403994208BF904230BD2A
:10094000064C074D06E0E06840F0010394E807001C
:1009500098471034AC42F6D3FFF7CCFBB0600008E8
:10096000D0600008202A04DB203A21FA02F000219E
:10097000704721FA02F3D040C2F1200291400843AF
:1009800019467047FFE7FEE780B540F26410C2F2F7
:10099000000000F0A9FB80BD80B540F22010C2F23B
:1009A000000000F0A1FB80BD80B540F2DC00C2F287
:1009B000000000F099FB80BD80B540F29800C2F2C3
:1009C000000000F091FB80BD80B594B08DF84F0021
:1009D0009DF84F00413801461291262800F2BE8151
:1009E0001299DFE811F07E009700B0002001390174
:1009F0005C019D01BB01BB01BB01BB01BB01BB0194
:100A0000BB01BB01BB01BB01BB01BB01BB01BB0106
:100A1000BB01BB01BB01BB01BB01BB01BB01BB01F6
:100A2000BB01BB01BB01270041006400C900E3001A
:100A300006017F0140F23830C2F2000011900068D8
:100A40000021CBF68071FFF77FFB01461198016012
:100A50000068FFF739FD02460B4646F29300C0F6E8
:100A6000000004F065FE7AE140F23830C2F2000086
:100A700010904068FFF728FD49F69A12C9F69912BE
:100A800049F69913CBF6B973FFF726FCFFF72FFD54
:100A90000146109841604068FFF716FD02460B467C
:100AA00046F25400C0F6000004F042FE57E140F266
:100AB0003830C2F200000F9080680021CBF68071C0
:100AC000FFF742FB01460F9881608068FFF7FCFC4E
:100AD00002460B4646F23A00C0F6000004F028FE3B
:100AE0003DE140F23830C2F200000E9000684FF055
:100AF0007E51FFF729FB01460E9801600068FFF761
:100B0000E3FC02460B4646F29300C0F6000004F0F8
:100B10000FFE24E140F23830C2F200000D90406830
:100B20004FF07E51FFF710FB01460D984160406881
:100B3000FFF7CAFC02460B4646F25400C0F600001E
:100B400004F0F6FD0BE140F23830C2F200000C90E8
:100B500080684FF07E51FFF7F7FA01460C988160EC
:100B60008068FFF7B1FC02460B4646F23A00C0F639
:100B7000000004F0DDFDF2E040F26030C2F200005F
:100B80000B9000680021CBF68071FFF7DDFA01467B
:100B90000B9801600068FFF797FC02460B4646F28F
:100BA0008600C0F6000004F0C3FDD8E040F26030DB
:100BB000C2F200000A904068FFF786FC49F69A12DC
:100BC000C9F6991249F69913CBF6B973FFF784FB6E
:100BD000FFF78DFC01460A9841604068FFF774FCFE
:100BE00002460B4646F26100C0F6000004F0A0FD8C
:100BF000B5E040F26030C2F2000009908068002148
:100C0000CBF68071FFF7A0FA0146099881608068F1
:100C1000FFF75AFC02460B4646F24700C0F60000BA
:100C200004F086FD9BE040F26030C2F200000890C4
:100C300000684FF07E51FFF787FA0146089801607F
:100C40000068FFF741FC02460B4646F2A000C0F6E2
:100C5000000004F06DFD82E040F26030C2F200005E
:100C600007904068FFF730FC49F69A12C9F69912CE
:100C700049F69913C3F6B973FFF72EFBFFF737FC5C
:100C80000146079841604068FFF71EFC02460B468C
:100C900046F26100C0F6000004F04AFD5FE040F259
:100CA0006030C2F2000006908068FFF70DFC49F644
:100CB0009A12C9F6991249F69913C3F6B973FFF758
:100CC0000BFBFFF714FC0146069881608068FFF774
:100CD000FBFB02460B4646F24700C0F6000004F05C
:100CE00027FD3CE040F20C30C2F200004069FFF703
:100CF000EBFB0490059140F27000C2F200004069E5
:100D0000FFF7E2FB049A059B8C466946C1F804C0D4
:100D1000086046F26E00C0F6000004F009FD1EE017
:100D200040F20C30C2F200000069FFF7CDFB0290E8
:100D3000039140F27000C2F200000069FFF7C4FBAB
:100D4000029A039B8C466946C1F804C0086046F2CB
:100D50007A00C0F6000004F0EBFC00E0FFE740F290
:100D60008020C2F2000040F20831C2F200010122EC
:100D700002F01AFF14B080BD80B594B013901398A0
:100D800004F09AFC12901298FFF777FB014640F2AC
:100D90007000C2F20000016000680021C4F2A621C8
:100DA000FFF741FB00284CD1FFE740F20800C2F2F8
:100DB00000000A900068099040F20C30C2F2000076
:100DC0001190006840F27001C2F200010B910968B5
:100DD000FFF70CFA014640F23800C2F200000E9014
:100DE0000022CCF2A0120C920023C4F2A0130D93A7
:100DF00003F0C6FA40F20C01C2F200010F9109683B
:100E0000FFF7FAF901460998FFF7F0F90A9A0B99EA
:100E10000346119843611268109200680968FFF751
:100E2000E5F90C9A0D9B01460E9803F0A9FA0F996B
:100E30000968FFF7E1F91099FFF786F91199086140
:100E400066E040F27000C2F2000000680021C4F2C7
:100E50009A21FFF704FB00284CD1FFE740F208007D
:100E6000C2F2000001900068009040F20C30C2F223
:100E700000000890006840F27001C2F20001029187
:100E80000968FFF7B3F9014640F23800C2F20000EA
:100E900005900022CCF2A01203920023C4F2A0130A
:100EA000049303F06DFA40F20C01C2F200010691C6
:100EB0000968FFF7A1F901460098FFF797F9019A31
:100EC000029903460898436112680792006809680E
:100ED000FFF78CF9039A049B0146059803F050FA3A
:100EE00006990968FFF788F90799FFF72DF908991E
:100EF00008610CE040F20800C2F20000026840F213
:100F00000C31C2F200014A6100680861FFE7FFE7A7
:100F100040F2C420C2F2000040F21001C2F200010F
:100F2000042202F041FE41F20000C4F201004FF43D
:100F3000005100F01DFC14B080BD0000704700009F
:100F400081B0EFF3108072B60090FFE7FEE700007B
:100F500083B0019000208DF80300019890F82100E3
:100F600002280DD0FFE7019904208863FFE701996B
:100F7000002081F82000FFE701208DF80B0021E020
:100F800001980168086820F00E0008600198016867
:100F9000086820F0010008600198C16B026C012014
:100FA00090404860FFE70199012081F82100FFE7A8
:100FB0000199002081F82000FFE79DF803008DF8DB
:100FC0000B00FFE79DF80B0003B0704780B588B0B9
:100FD000079000208DF81B00079890F82100022848
:100FE00007D0FFE707990420886301208DF81B00D4
:100FF00076E007980168086820F00E0008600798FE
:101000000168086820F0010008600798006808215E
:10101000C4F20201884203D1FFE70120059047E0B6
:10102000079800681C21C4F20201884203D1FFE73F
:101030001020049039E0079800683021C4F20201C2
:10104000884204D1FFE74FF4807003902AE00798AC
:1010500000684421C4F20201884204D1FFE74FF442
:10106000805002901BE0079800685821C4F20201EA
:10107000884204D1FFE74FF4803001900CE00798DC
:1010800001686C22C4F202024FF08070914208BFE6
:101090004FF480100190FFE701980290FFE702985B
:1010A0000390FFE703980490FFE704980590FFE79B
:1010B00005980421C4F2020108600799012081F813
:1010C0002100FFE70799002081F82000FFE707983B
:1010D000406B20B1FFE70798416B8847FFE7FFE7C8
:1010E0009DF81B0008B080BD80B58EB00D900D98A6
:1010F000C06B00680C900D98006800680B900C980D
:101100000D99096CC8404007002875D5FFE79DF888
:101110002C00400700286FD5FFE70D980068006895
:101120008006002807D4FFE70D980168086820F0C2
:1011300004000860FFE70D9800680821C4F202016E
:10114000884203D1FFE704200A9047E00D98006829
:101150001C21C4F20201884203D1FFE7402009901C
:1011600039E00D9800683021C4F20201884204D1B0
:10117000FFE74FF4806008902AE00D980068442152
:10118000C4F20201884204D1FFE74FF48040079087
:101190001BE00D9800685821C4F20201884204D176
:1011A000FFE74FF4802006900CE00D9801686C2258
:1011B000C4F202024FF08060914208BF4FF48000F9
:1011C0000690FFE706980790FFE707980890FFE76B
:1011D00008980990FFE709980A90FFE70A98042108
:1011E000C4F2020108600D98C06A20B1FFE70D98B3
:1011F000C16A8847FFE7B8E00C980D99096CC840B0
:101200008007002840F18080FFE79DF82C008007D0
:10121000002879D5FFE70D9800680068800600284F
:101220000BD4FFE70D980168086820F00A000860F9
:101230000D99012081F82100FFE70D980068082131
:10124000C4F20201884203D1FFE70220059047E083
:101250000D9800681C21C4F20201884203D1FFE707
:101260002020049039E00D9800683021C4F202017A
:10127000884204D1FFE74FF4007003902AE00D98F4
:1012800000684421C4F20201884204D1FFE74FF410
:10129000005002901BE00D9800685821C4F2020132
:1012A000884204D1FFE74FF4003001900CE00D9824
:1012B00001686C22C4F202024FF00070914208BF34
:1012C0004FF400100190FFE701980290FFE70298A9
:1012D0000390FFE703980490FFE704980590FFE769
:1012E00005980421C4F202010860FFE70D9900206F
:1012F00081F82000FFE70D98806A20B1FFE70D9884
:10130000816A8847FFE72FE00C980D99096CC84067
:101310000007002827D5FFE79DF82C0000070028CC
:1013200021D5FFE70D980168086820F00E000860DD
:101330000D98C26B016C012000FA01F151600D990A
:1013400088630D9981F82100FFE70D99002081F84D
:101350002000FFE70D98006B20B1FFE70D98016BAF
:101360008847FFE7FFE7FFE7FFE70EB080BD00001B
:1013700083B0019000200090019820B9FFE7012080
:101380008DF80B0047E0019908684FF6F872CBF62C
:10139000FD7210444CF6CD42CCF6CC42A0FB0202CA
:1013A0006FF0030000EA9200086401990020C4F283
:1013B0000200C8630199022081F8210001980068A9
:1013C00000680090009843F6F071884300900199FE
:1013D0004868D1F808C0CB680A6940EA0C00184395
:1013E00010434A6910438A691043C9690143009850
:1013F000084300900098019909680860019900204D
:101400008863019A012182F82110019981F8200056
:101410008DF80B00FFE79DF80B0003B0704700004C
:1014200090B00F900E9100200D900990FFE70E985C
:1014300000680D99C840002800F07F81FFE70D99F2
:10144000012088400C900E9800680C9908400B9081
:101450000B980C99884240F06C81FFE70E98406829
:101460000590002851D0FFE7059801283AD0FFE702
:10147000059802283FD0FFE7059803285FD0FFE7D3
:101480000598112832D0FFE70598122838D0FFE7D9
:1014900005980021C1F21101884236D0FFE7059876
:1014A0000021C1F2120188422FD0FFE705980021E8
:1014B000C1F22101884228D0FFE705980021C1F23E
:1014C0002201884221D0FFE705980021C1F23101B5
:1014D00088421AD0FFE705980021C1F23201884204
:1014E00013D02FE00E98C06809902CE00E98C068C9
:1014F0000430099027E00E98C0680830099022E077
:101500000E98C0680C3009901DE00E98806818B9DC
:10151000FFE70420099011E00E988068012806D1A9
:10152000FFE7082009900C980F99086105E0082052
:1015300009900C980F994861FFE7FFE703E000204E
:10154000099000E0FFE70B98FF2803D8FFE70F980A
:10155000049003E00F9804300490FFE7049808908B
:101560000B98FF2804D8FFE70D988000039006E051
:101570000D996FF01F0000EB81000390FFE70398C7
:10158000079008980068079A0F21914088430999AD
:1015900091400843089908600E98C079C006002859
:1015A00040F1C680FFE7FFE741F21800C4F20200F5
:1015B000016841F001010160006800F0010006903F
:1015C0000698FFE70D9820F003000821C4F20101FE
:1015D00040580A900D9800F0030081000F2000FA97
:1015E00001F10A9888430A900F9840F60001C4F26E
:1015F0000101884203D1FFE70020029026E00F9806
:1016000040F60041C4F20101884203D1FFE7012006
:10161000019018E00F9841F20001C4F201018842E4
:1016200003D1FFE7022000900AE00F9941F2004247
:10163000C4F201020420914208BF03200090FFE79A
:1016400000980190FFE701980290FFE702980D993A
:1016500001F00301890000FA01F10A9808430A9099
:101660000A980D9921F003010822C4F20102885062
:101670000E988079C00748B1FFE70B9A40F200410D
:10168000C4F2010108681043086008E00B9A40F2B8
:101690000041C4F20101086890430860FFE70E981A
:1016A00080798007002809D5FFE70B9A40F20441B2
:1016B000C4F2010108681043086008E00B9A40F288
:1016C0000441C4F20101086890430860FFE70E98E6
:1016D0008079C006002809D5FFE70B9A40F208413F
:1016E000C4F2010108681043086008E00B9A40F258
:1016F0000841C4F20101086890430860FFE70E98B2
:1017000080798006002809D5FFE70B9A40F20C414A
:10171000C4F2010108681043086008E00B9A40F227
:101720000C41C4F20101086890430860FFE7FFE73D
:10173000FFE70D9801300D9079E610B0704700007A
:1017400082B00190ADF8021001988068BDF80210D7
:10175000084204D0FFE701208DF8010003E00020DB
:101760008DF80100FFE79DF8010002B0704700000E
:1017700083B00290ADF806100298C0680090009AFD
:10178000BDF8060002EA0001904340EA01400299D8
:10179000086103B07047000082B00190ADF80210FC
:1017A0008DF801209DF8010028B1FFE7BDF8020087
:1017B0000199086105E0BDF8020000040199086183
:1017C000FFE702B07047000040F23430C2F2000080
:1017D0000068704740F21400C2F20000027840F244
:1017E0003431C2F2000108681044086070470000FC
:1017F00080B542F20001C4F20201086840F0100016
:101800000860032000F096F80F2000F005F800F0C3
:101810003BF8002080BD000080B582B0009040F20F
:101820000400C2F20000006840F21401C2F200019C
:101830000A784FF47A71B1FBF2F1B0FBF1F000F0ED
:1018400087FD20B1FFE701208DF8070018E0009820
:101850000F280DD8FFE700994FF0FF30002200F06D
:101860004FF8009840F21801C2F20001086003E04E
:1018700001208DF8070003E000208DF80700FFE746
:101880009DF8070002B080BD83B0FFE741F2180069
:10189000C4F20200016841F001010160006800F03B
:1018A000010002900298FFE7FFE741F21C00C4F23A
:1018B0000200016841F080510160006800F0805032
:1018C00001900198FFE7FFE70421C4F201010868D5
:1018D0000090009820F0E0600090009840F00070C8
:1018E000009000980860FFE703B0704780B582B0B1
:1018F0008DF807009DF9070003F09EFC02B080BD43
:1019000080B586B08DF817000491039200200290F4
:1019100003F0AAFC02909DF9170001900298049927
:10192000039A02F0F7FC0146019803F0A5FC06B00B
:1019300080BD000080B582B00190019803F0BEFC2C
:1019400002B080BD80B584B002900191029820B9A8
:10195000FFE701208DF80F001BE1019842F2000122
:10196000C4F20201096801F00701884216D9FFE7B5
:1019700042F20000C4F20200016821F00701019A5E
:1019800011430160006800F007000199884204D00B
:10199000FFE701208DF80F00FBE0FFE702980078D9
:1019A000800700282AD5FFE7029800784007002822
:1019B00009D5FFE741F20401C4F20201086840F4CE
:1019C000E0600860FFE7029800780007002809D56A
:1019D000FFE741F20401C4F20201086840F46050DC
:1019E0000860FFE741F20401C4F20201086820F038
:1019F000F000029A926810430860FFE702980078AE
:101A0000C007002860D0FFE70298406801280ED187
:101A1000FFE741F20000C4F20200006880030028E2
:101A200004D4FFE701208DF80F00B2E021E0029816
:101A3000406802280ED1FFE741F20000C4F2020024
:101A400000688001002804D4FFE701208DF80F0012
:101A50009FE00DE041F20000C4F202000068800740
:101A6000002804D4FFE701208DF80F0091E0FFE784
:101A7000FFE741F20401C4F20201086820F003000C
:101A8000029A526810430860FFF79EFE0090FFE73D
:101A900041F20400C4F20200006800F00C00029958
:101AA0004968B0EB810F0ED0FFE7FFF78DFE00997C
:101AB000401A41F28931884204D3FFE703208DF8B0
:101AC0000F0066E0E4E7FFE7019842F20001C4F28C
:101AD0000201096801F00701884216D2FFE742F2CD
:101AE0000000C4F20200016821F00701019A1143CD
:101AF0000160006800F007000199884204D0FFE708
:101B000001208DF80F0044E0FFE7029800784007BD
:101B100000280CD5FFE741F20401C4F20201086875
:101B200020F4E060029AD26810430860FFE7029850
:101B30000078000700280DD5FFE741F20401C4F248
:101B40000201086820F46050029A126940EAC2005B
:101B50000860FFE700F04CF841F20401C4F2020112
:101B60000968C9B20A0946F22201C0F60001895C7F
:101B7000C84040F20401C2F20001086040F21800BF
:101B8000C2F200000068FFF747FE00208DF80F004A
:101B9000FFE79DF80F0004B080BD000040F2040094
:101BA000C2F200000068704780B5FFF7F7FF41F20E
:101BB0000401C4F202010968C1F3022246F23201B3
:101BC000C0F60001895CC84080BD000080B5FFF709
:101BD000E5FF41F20401C4F202010968C1F3C22227
:101BE00046F23201C0F60001895CC84080BD0000A9
:101BF0008BB040F60E70C1F210000A9040F60A3029
:101C0000C0F60C50099040F20670C0F6081008901B
:101C100040F20230C0F20450079040F20120ADF8CB
:101C20001A0000200590049003900290019041F268
:101C30000400C4F2020000680590059800F00C0052
:101C400001460091E0B3FFE70098042804D0FFE7C5
:101C50000098082806D034E041F20020C0F27A0053
:101C6000019034E00598C0F3834107A8405C0290DE
:101C70009DF81600C007C0B1FFE741F20400C4F2AE
:101C80000200006800F400310DF11A0040EA5140F2
:101C900000780490029841F20021C0F27A01484392
:101CA0000499B0FBF1F0039007E0029840F60011B0
:101CB000C0F23D0148430390FFE70398019006E01E
:101CC000FFE741F20020C0F27A000190FFE701989F
:101CD0000BB0704780B586B00490049820B9FFE738
:101CE00001208DF817002EE304980078C007002823
:101CF00000F0AE80FFE741F20400C4F20200006889
:101D000000F00C00042813D0FFE741F20400C4F2F5
:101D10000200006800F00C0008281BD1FFE741F228
:101D20000400C4F202000068C003002812D5FFE7D7
:101D300041F20000C4F2020000688003002808D5C8
:101D4000FFE70498406820B9FFE701208DF81700ED
:101D5000F9E27CE0FFE704984068B0F5803F09D1E4
:101D6000FFE741F20001C4F20201086840F480304C
:101D7000086032E00498406868B9FFE741F200016A
:101D8000C4F20201086820F480300860086820F47A
:101D90008020086020E004984068B0F5A02F0DD1A5
:101DA000FFE741F20001C4F20201086840F480201C
:101DB0000860086840F4803008600CE041F20001DF
:101DC000C4F20201086820F480300860086820F43A
:101DD00080200860FFE7FFE7FFE7FFE7049840681F
:101DE000D0B1FFE7FFF7F0FC0390FFE741F20000FE
:101DF000C4F202000068800300280CD4FFE7FFF75C
:101E0000E3FC0399401A652804D3FFE703208DF80B
:101E1000170098E2EAE719E0FFF7D6FC0390FFE726
:101E200041F20000C4F202000068800300280CD5D3
:101E3000FFE7FFF7C9FC0399401A652804D3FFE7C1
:101E400003208DF817007EE2EAE7FFE7FFE7FFE7F0
:101E5000049800788007002840F18D80FFE741F268
:101E60000400C4F20200006810F00C0F13D0FFE76A
:101E700041F20400C4F20200006800F00C000828DF
:101E800029D1FFE741F20400C4F202000068C00358
:101E9000002820D4FFE741F20000C4F202000068ED
:101EA0008007002809D5FFE704980069012804D0BD
:101EB000FFE701208DF8170045E241F20001C4F26E
:101EC0000201086820F0F800049A526940EAC20052
:101ED0000860FFE74EE00498006958B3FFE700216F
:101EE000C4F2422101200860FFF76EFC0390FFE777
:101EF00041F20000C4F202000068800700280CD400
:101F0000FFE7FFF761FC0399401A032804D3FFE7BA
:101F100003208DF8170016E2EAE741F20001C4F24F
:101F20000201086820F0F800049A526940EAC200F1
:101F300008601EE00021C4F2422100200860FFF783
:101F400043FC0390FFE741F20000C4F20200006886
:101F5000800700280CD5FFE7FFF736FC0399401AED
:101F6000032804D3FFE703208DF81700EBE1EAE72D
:101F7000FFE7FFE7FFE7049800780007002848D54F
:101F8000FFE70498806918B3FFE740F28041C4F28C
:101F9000422101200860FFF717FC0390FFE741F2A0
:101FA0002400C4F202000068800700280CD4FFE778
:101FB000FFF70AFC0399401A032804D3FFE7032024
:101FC0008DF81700BFE1EAE7012002F03BFA1FE0BD
:101FD00040F28041C4F2422100200860FFF7F4FB88
:101FE0000390FFE741F22400C4F20200006880077A
:101FF00000280CD5FFE7FFF7E7FB0399401A0328F9
:1020000004D3FFE703208DF817009CE1EAE7FFE720
:10201000FFE7049800784007002840F1D880FFE7E8
:1020200000208DF8070041F21C00C4F20200006895
:10203000C000002813D4FFE7FFE741F21C00C4F200
:102040000200016841F080510160006800F080509A
:1020500000900098FFE701208DF80700FFE747F2A6
:102060000000C4F200000068C005002822D4FFE789
:1020700047F20001C4F20001086840F48070086073
:10208000FFF7A2FB0390FFE747F20000C4F2000055
:102090000068C00500280CD4FFE7FFF795FB039903
:1020A000401A652804D3FFE703208DF817004AE1A2
:1020B000EAE7FFE7FFE70498C068012809D1FFE7D6
:1020C00041F22001C4F20201086840F001000860FA
:1020D00031E00498C06868B9FFE741F22001C4F21A
:1020E0000201086820F001000860086820F0040080
:1020F00008601FE00498C06805280DD1FFE741F291
:102100002001C4F20201086840F004000860086879
:1021100040F0010008600CE041F22001C4F202012D
:10212000086820F001000860086820F004000860DA
:10213000FFE7FFE7FFE7FFE70498C068E0B1FFE7CC
:10214000FFF742FB0390FFE741F22000C4F20200D8
:102150000068800700280ED4FFE7FFF735FB0399DE
:10216000401A41F28931884204D3FFE703208DF8F9
:102170001700E8E0E8E71BE0FFF726FB0390FFE726
:1021800041F22000C4F202000068800700280ED54A
:10219000FFE7FFF719FB0399401A41F289318842A2
:1021A00004D3FFE703208DF81700CCE0E8E7FFE752
:1021B0009DF80700012809D1FFE741F21C01C4F294
:1021C0000201086820F080500860FFE7FFE70498EC
:1021D000C069002800F0B380FFE741F20400C4F2B8
:1021E0000200006800F00C00082800F08280FFE781
:1021F0000498C06902285CD1FFE76021C4F2422143
:1022000000200860FFF7E0FA0390FFE741F20000CA
:10221000C4F202000068800100280CD5FFE7FFF738
:10222000D3FA0399401A032804D3FFE703208DF85B
:10223000170088E0EAE70498006AB0F5803F0CD107
:10224000FFE741F20401C4F20201086820F4003003
:10225000049A926810430860FFE741F20401C4F257
:102260000201086820F47410049B1A6A5B6A1A431E
:10227000104308606021C4F2422101200860FFF78A
:10228000A3FA0390FFE741F20000C4F202000068E5
:10229000800100280CD4FFE7FFF796FA0399401A53
:1022A000032804D3FFE703208DF817004BE0EAE78B
:1022B0001EE06021C4F2422100200860FFF784FA8A
:1022C0000390FFE741F20000C4F2020000688001C1
:1022D00000280CD5FFE7FFF777FA0399401A032887
:1022E00004D3FFE703208DF817002CE0EAE7FFE7AF
:1022F00024E00498C069012804D1FFE701208DF88B
:10230000170020E041F20400C4F2020000680290CD
:10231000029800F480300499096A884208D1FFE7E6
:10232000029800F470100499496A884204D0FFE7CB
:1023300001208DF8170006E0FFE7FFE7FFE7002028
:102340008DF81700FFE79DF8170006B080BD00006C
:1023500080B582B00190019802F094F802B080BD7F
:1023600081B0009001B0704781B0009001B070471B
:1023700085B003900291FFE7039890F83C00012894
:1023800004D1FFE702208DF813005BE003990120E0
:1023900081F83C00FFE7FFE70399022081F83D0048
:1023A0000398006840680190039800688068009076
:1023B000019820F07000019002980168019808438C
:1023C000019001980399096848600398006842F6F3
:1023D0000041C4F20101884218D0FFE70398006869
:1023E000B0F1804F12D0FFE70398006840F200413F
:1023F000C4F20001884209D0FFE70398006840F664
:102400000001C4F2000188420ED1FFE7009820F0DD
:10241000800000900298416800980843009000985E
:10242000039909688860FFE70399012081F83D005E
:10243000FFE70399002081F83C00FFE700208DF8BA
:102440001300FFE79DF8130005B0704780B582B018
:102450000090009820B9FFE701208DF807003FE0C9
:10246000009890F83D0040B9FFE70099002081F8FE
:102470003C00009800F038F8FFE70099022081F84E
:102480003D00009951F8040B02F07AF80099012000
:1024900081F84600FFE70099012081F83E0000998D
:1024A00081F83F00009981F84000009981F84100CF
:1024B000FFE7FFE70099012081F84200009981F8C9
:1024C0004300009981F84400009981F84500FFE736
:1024D0000099012081F83D0000208DF80700FFE7FA
:1024E0009DF8070002B080BD80B586B005900598C4
:1024F0000068B0F1804F19D1FFE7FFE741F21C00FF
:10250000C4F20200016841F001010160006800F0BE
:10251000010004900498FFE71C2002900121002292
:10252000FFF7EEF90298FFF7E1F922E0059800685D
:1025300040F60001C4F20001884219D1FFE7FFE72D
:1025400041F21C00C4F20200016841F00401016084
:10255000006800F0040003900398FFE71E2001903C
:1025600000221146FFF7CCF90198FFF7BFF9FFE70A
:10257000FFE706B080BD000083B00190019890F89D
:102580003D00012804D0FFE701208DF80B0047E053
:102590000199022081F83D0001980168C86840F067
:1025A0000100C8600198006842F60041C4F20101D0
:1025B000884218D0FFE701980068B0F1804F12D030
:1025C000FFE70198006840F20041C4F20001884230
:1025D00009D0FFE70198006840F60001C4F200014D
:1025E000884212D1FFE701980068806800F0070078
:1025F00000900098062807D0FFE701980168086856
:1026000040F001000860FFE706E0019801680868F3
:1026100040F001000860FFE700208DF80B00FFE7A5
:102620009DF80B0003B0704780B586B0049003910D
:10263000FFE7049890F83C00012804D1FFE702204E
:102640008DF81700A7E00499012081F83C00FFE70E
:10265000FFE70499022081F83D0004980068806833
:102660000290029820F077000290029820F47F40B8
:1026700002900298049909688860039800680190A4
:10268000002872D0FFE7019810286ED0FFE701986C
:1026900020286AD0FFE70198302866D0FFE701982C
:1026A000402855D0FFE70198502837D0FFE7019820
:1026B000602840D0FFE7019870280BD0FFE7019811
:1026C000B0F5805F05D0FFE70198B0F5005F16D048
:1026D00052E052E004980068039B5A689968DB68EE
:1026E00001F0E2FF0498006880680290029840F0D0
:1026F0007700029002980499096888603DE0049888
:102700000068039B5A689968DB6801F0CDFF049864
:102710000168886840F4804088602EE00498006872
:10272000039A5168D26802F07BF90498006850213E
:1027300001F0D4FF21E004980068039A5168D26840
:1027400002F0FAF904980068602101F0C7FF14E074
:1027500004980068039A5168D26802F061F90498FD
:102760000068402101F0BAFF07E00498006803996F
:10277000096801F0B3FF00E0FFE70499012081F848
:102780003D00FFE70499002081F83C00FFE70020AE
:102790008DF81700FFE79DF8170006B080BD000018
:1027A00080B58EB00D900D9840F2A811C2F20001D4
:1027B00088426ED1FFE70D98007F042869D1FFE7BA
:1027C00040F60040C4F201004FF48041FEF7B8FF2C
:1027D0000C900D98082100F079FEFDF757FE014698
:1027E00040F22000C2F200000A9041600168406897
:1027F000FDF7FCFC01460A98816080680021FDF726
:102800002EFE78B9FFE740F22000C2F200000990E6
:1028100080684FF60071C4F27F71FDF795FC09994D
:102820008860FFE740F22000C2F2000041680160CA
:10283000816840F26000C2F2000008900068FDF775
:1028400083FC0899086040F26800C2F20000016849
:102850000131016000680C281ADBFFE740F26000DC
:10286000C2F200000790016842F20020C4F6211075
:10287000FDF7F4FC079940F27002C2F20002106109
:102880000020086040F26801C2F200010860FFE722
:10289000FFE70D9840F2A811C2F20001884240F013
:1028A0008080FFE70D98007F08287AD1FFE740F687
:1028B0000040C4F201004FF40041FEF741FF0B90CD
:1028C0000D980C2100F002FEFDF7E0FD014640F2FC
:1028D0002C00C2F200000690416001684068FDF7DC
:1028E00085FC01460698816080680021FDF7B7FDF0
:1028F00078B9FFE740F22C00C2F200000590806832
:102900004FF60071C4F27F71FDF71EFC05998860D7
:10291000FFE740F22C01C2F2000103914868086011
:1029200040F27000C2F200000290C06841F6B86147
:10293000C3F60571FDF708FC029A01460398D160C1
:10294000816840F26400C2F2000004900068FDF764
:10295000FBFB0499086040F26C00C2F200000168C1
:102960000131016000680C281ADBFFE740F26400C7
:10297000C2F200000190016842F20020C4F621106A
:10298000FDF76CFC019940F27002C2F20002506146
:102990000020086040F26C01C2F200010860FFE70D
:1029A000FFE70EB080BD000080B584B002900191B9
:1029B0000092FFE7029890F83C00012804D1FFE75D
:1029C00002208DF80F0076E00299012081F83C008A
:1029D000FFE7FFE70098B0B9FFE702980068019BA6
:1029E00019685A68DB6802F043F802980168886940
:1029F00020F00C008861019882680298016888695B
:102A0000104388614DE00098042817D1FFE7029831
:102A10000068019B19685A68DB6802F0B7F80298F1
:102A20000168886920F44060886101988268029892
:102A30000168886940EA0220886131E0009808282E
:102A400016D1FFE702980068019B19685A68DB6895
:102A500002F0D2F802980168C86920F00C00C86141
:102A60000198826802980168C8691043C86116E03D
:102A700002980068019B19685A68DB6802F0F2F856
:102A800002980168C86920F44060C86101988268B2
:102A900002980168C86940EA0220C861FFE7FFE7C1
:102AA000FFE7FFE70299002081F83C00FFE70020E4
:102AB0008DF80F00FFE79DF80F0004B080BD000007
:102AC00080B582B00090009820B9FFE701208DF812
:102AD00007003FE0009890F83D0040B9FFE70099FB
:102AE000002081F83C00009800F038F8FFE70099DA
:102AF000022081F83D00009951F8040B01F040FDDF
:102B00000099012081F84600FFE70099012081F833
:102B10003E00009981F83F00009981F8400000993B
:102B200081F84100FFE7FFE70099012081F84200AA
:102B3000009981F84300009981F84400009981F8D8
:102B40004500FFE70099012081F83D0000208DF845
:102B50000700FFE79DF8070002B080BD80B58AB08E
:102B60000990002008900790069005900998006849
:102B700042F60041C4F20101884236D1FFE7FFE787
:102B800041F21800C4F20200016841F400610160E2
:102B9000006800F4006004900498FFE7FFE741F24A
:102BA0001800C4F20200016841F0040101600068ED
:102BB00000F0040003900398FFE74FF47060059065
:102BC000002001900690079040F60000C4F201003A
:102BD00005A9FEF725FC019A1B2002901146FEF77D
:102BE0008FFE0298FEF782FEFFE70AB080BD00006C
:102BF00080B590B00E900D910D9828B9FFE70E9812
:102C000090F83E000A901CE00D98042805D1FFE7DB
:102C10000E9890F83F00099010E00D98082805D113
:102C2000FFE70E9890F84000089004E00E9890F8A6
:102C300041000890FFE708980990FFE709980A907B
:102C4000FFE70A988DF82F000D9828B9FFE70E9836
:102C500090F8420007901CE00D98042805D1FFE78A
:102C60000E9890F84300069010E00D98082805D1C2
:102C7000FFE70E9890F84400059004E00E9890F855
:102C800045000590FFE705980690FFE70698079036
:102C9000FFE707988DF82E009DF82F00012805D139
:102CA000FFE79DF82E00012804D0FFE701208DF8F2
:102CB0003F00BCE00D9828B9FFE70E99022081F88B
:102CC0003E001EE00D98042806D1FFE70E99022071
:102CD00081F83F00049012E00D98082806D1FFE724
:102CE0000E99022081F84000039005E00E99022021
:102CF00081F841000390FFE703980490FFE70498F0
:102D0000FFE70D9828B9FFE70E99022081F84200ED
:102D10001EE00D98042806D1FFE70E99022081F8E5
:102D20004300029012E00D98082806D1FFE70E99A3
:102D3000022081F84400019005E00E99022081F8FC
:102D400045000190FFE701980290FFE70298FFE736
:102D50000D9800900C2825D80099DFE801F0072392
:102D600023230E232323152323231C000E980168FD
:102D7000C86840F00200C86015E00E980168C86895
:102D800040F00400C8600EE00E980168C86840F08A
:102D90000800C86007E00E980168C86840F010009D
:102DA000C86000E0FFE70E9800680D99012201F06D
:102DB0005FFC0E98006842F60041C4F201018842AF
:102DC00018D0FFE70E980068B0F1804F12D0FFE7EF
:102DD0000E98006840F20041C4F20001884209D018
:102DE000FFE70E98006840F60001C4F20001884237
:102DF00012D1FFE70E980068806800F007000C9081
:102E00000C98062807D0FFE70E980168086840F084
:102E100001000860FFE706E00E980168086840F0CE
:102E200001000860FFE700208DF83F00FFE79DF8F4
:102E30003F0010B080BD000080B582B001900198C5
:102E40000068006900F002010020B0EB510F28D0AB
:102E5000FFE701980068C06800F002010020B0EBB5
:102E6000510F1DD0FFE7019801686FF00200086163
:102E7000019901200877019800688069800720B1D6
:102E8000FFE70198FFF78CFC06E0019800F042F99B
:102E9000019800F02FFAFFE7019900200877FFE77B
:102EA000FFE701980068006900F004010020B0EB22
:102EB000910F29D0FFE701980068C06800F0040175
:102EC0000020B0EB910F1ED0FFE7019801686FF072
:102ED0000400086101990220087701980068806960
:102EE00010F4407F04D0FFE70198FFF759FC06E09B
:102EF000019800F00FF9019800F0FCF9FFE7019943
:102F000000200877FFE7FFE701980068006900F0FC
:102F100008010020B0EBD10F28D0FFE7019800682E
:102F2000C06800F008010020B0EBD10F1DD0FFE712
:102F3000019801686FF00800086101990420087782
:102F400001980068C069800720B1FFE70198FFF78A
:102F500027FC06E0019800F0DDF8019800F0CAF9BE
:102F6000FFE7019900200877FFE7FFE70198006875
:102F7000006900F010010020B0EB111F29D0FFE71D
:102F800001980068C06800F010010020B0EB111F2C
:102F90001ED0FFE7019801686FF0100008610199E9
:102FA0000820087701980068C06910F4407F04D0B9
:102FB000FFE70198FFF7F4FB06E0019800F0AAF89C
:102FC000019800F097F9FFE7019900200877FFE7E3
:102FD000FFE7019800680069C00780B1FFE701982A
:102FE0000068C068C00748B1FFE7019801686FF04A
:102FF00001000861019800F031FAFFE7FFE701984E
:1030000000680069C1B20020B0EBD11F13D0FFE708
:1030100001980068C068C1B20020B0EBD11F09D090
:10302000FFE7019801686FF0800008610198FFF7E1
:1030300097F9FFE7FFE701980068006900F0400199
:103040000020B0EB911F14D0FFE701980068C06822
:1030500000F040010020B0EB911F09D0FFE701987C
:1030600001686FF040000861019800F05BFAFFE72B
:10307000FFE701980068006900F020010020B0EB34
:10308000511F14D0FFE701980068C06800F02001CC
:103090000020B0EB511F09D0FFE7019801686FF0E5
:1030A000200008610198FFF75FF9FFE7FFE702B032
:1030B00080BD000080B586B005900020049003908C
:1030C000029001900598006840F60001C4F20001EA
:1030D00088421DD1FFE7FFE741F21800C4F2020069
:1030E000016841F008010160006800F008000090EC
:1030F0000098FFE74FF44070019002200290049086
:1031000040F60040C4F2010001A9FEF789F9FFE78B
:1031100006B080BD81B0009001B0704780B586B028
:10312000049003910292FFE7049890F83C00012874
:1031300004D1FFE702208DF8170085E004990120F3
:1031400081F83C00FFE7FFE7029801900C2800F2AD
:1031500070800199DFE801F0076D6D6D206D6D6D78
:103160003A6D6D6D530004980068039901F0CCFA34
:1031700004980168886940F0080088610498016833
:10318000886920F004008861039802690498016846
:103190008869104388614DE004980068039901F044
:1031A0001BFB04980168886940F4006088610498FA
:1031B0000168886920F48060886103980269049836
:1031C0000168886940EA0220886133E00498006859
:1031D000039901F06DFB04980168C86940F008008C
:1031E000C86104980168C86920F00400C8610398A8
:1031F000026904980168C8691043C8611AE004981C
:103200000068039901F0C0FB04980168C86940F4A4
:103210000060C86104980168C86920F48060C861D2
:103220000398026904980168C86940EA0220C861ED
:1032300000E0FFE7FFE70499002081F83C00FFE78A
:1032400000208DF81700FFE79DF8170006B080BD3D
:1032500080B582B00090009820B9FFE701208DF87A
:1032600007003FE0009890F83D0040B9FFE7009963
:10327000002081F83C00009800F038F8FFE7009942
:10328000022081F83D00009951F8040B01F078F913
:103290000099012081F84600FFE70099012081F89C
:1032A0003E00009981F83F00009981F840000099A4
:1032B00081F84100FFE7FFE70099012081F8420013
:1032C000009981F84300009981F84400009981F841
:1032D0004500FFE70099012081F83D0000208DF8AE
:1032E0000700FFE79DF8070002B080BD81B00090A5
:1032F00001B0704781B0009001B0704780B58AB0CE
:1033000008900791079828B9FFE7089890F83E00C1
:1033100005901CE00798042805D1FFE7089890F86D
:103320003F00049010E00798082805D1FFE70898AF
:1033300090F84000039004E0089890F84100039052
:10334000FFE703980490FFE704980590FFE70598CE
:10335000012804D0FFE701208DF827007AE00798C4
:1033600028B9FFE70899022081F83E001EE007987F
:10337000042806D1FFE70899022081F83F00029057
:1033800012E00798082806D1FFE70899022081F883
:103390004000019005E00899022081F84100019069
:1033A000FFE701980290FFE70298FFE7089800689E
:1033B0000799012201F05CF90898006842F6004183
:1033C000C4F20101884207D1FFE708980168486C00
:1033D00040F400404864FFE70898006842F6004166
:1033E000C4F20101884218D0FFE708980068B0F1E4
:1033F000804F12D0FFE70898006840F20041C4F205
:103400000001884209D0FFE70898006840F60001F3
:10341000C4F20001884212D1FFE708980068806872
:1034200000F0070006900698062807D0FFE70898E6
:103430000168086840F001000860FFE706E00898AE
:103440000168086840F001000860FFE700208DF87F
:103450002700FFE79DF827000AB080BD80B584B043
:10346000039003980068B0F1804F2CD1FFE740F241
:103470000C30C2F200000090006940F27001C2F20C
:10348000000102910969FCF7B1FE014640F23830B3
:10349000C2F200000022C4F27A42019200F092FCD3
:1034A0000299024600980A6240694969FCF79EFE4B
:1034B000019A014640F26030C2F2000000F082FC46
:1034C00002994862FFE704B080BD000084B0039019
:1034D000029100200190029800900C281DD80099BC
:1034E000DFE801F0071B1B1B0C1B1B1B111B1B1B0D
:1034F000160003980068406B01900FE00398006885
:10350000806B01900AE003980068C06B019005E0B1
:1035100003980068006C019000E0FFE7019804B098
:103520007047000081B0009001B0704782B00190F8
:10353000ADF8021002B0704781B0009001B0704742
:1035400080B588B0079007980068006806900798D3
:103550000068C068059007980068406904900020E2
:1035600003900290069800F00F000390039888B92A
:10357000FFE79DF81800800600280AD5FFE79DF8B0
:1035800014008006002804D5FFE7079801F0E8FB47
:1035900076E1FFE70398002800F0B480FFE79DF88C
:1035A0001000C00738B9FFE7BDF8140010F4907F91
:1035B00000F0A880FFE79DF81800C00758B1FFE7AA
:1035C0009DF81500C00730B1FFE70799086C40F07F
:1035D00001000864FFE79DF81800400700280BD59C
:1035E000FFE79DF81000C00730B1FFE70799086CAE
:1035F00040F002000864FFE79DF8180080070028EB
:103600000BD5FFE79DF81000C00730B1FFE7079921
:10361000086C40F004000864FFE79DF818000007FC
:10362000002811D5FFE79DF814008006002805D476
:10363000FFE79DF81000C00730B1FFE70799086C5D
:1036400040F008000864FFE70798006C002858D095
:10365000FFE79DF81800800600280AD5FFE79DF8CF
:1036600014008006002804D5FFE7079801F078FBD6
:10367000FFE7079800684069C0F380100290079840
:10368000006C0007002803D4FFE7029888B3FFE727
:10369000079801F02DFB0798006840694006002854
:1036A00022D5FFE707980168486920F0400048618B
:1036B0000798806B98B1FFE70798816B44F6D1407B
:1036C000C0F6000048630798806BFDF77FFC28B1C7
:1036D000FFE70798806B416B8847FFE703E0079897
:1036E000FFF72AFFFFE703E00798FFF725FFFFE753
:1036F00006E00798FFF720FF079900200864FFE71E
:10370000FFE7BDE00798006B012840F09980FFE7D4
:103710009DF81800C006002840F19280FFE79DF850
:103720001400C006002840F18B80FFE7FFE700206F
:103730000190079800680068019007980068406849
:1037400001900198FFE7079800684069400600284B
:1037500048D5FFE70798806B00684068ADF8020025
:10376000BDF80200E8B3FFE7BDF802000799898DB4
:10377000884236DAFFE7BDF802000799C885079846
:10378000806B8069202824D0FFE707980168C8680B
:1037900020F48070C86007980168486920F0010033
:1037A000486107980168486920F04000486107991E
:1037B000202081F83E0007990020086307980168DF
:1037C000C86820F01000C8600798806BFDF7C0FB48
:1037D000FFE70798818DC28D891A89B2FFF7A6FE8F
:1037E000FFE74DE00799888DC98D401AADF80000BC
:1037F0000798C08D18B3FFE7BDF80000F8B1FFE7E8
:1038000007980168C86820F49070C860079801683C
:10381000486920F0010048610799202081F83E00A6
:1038200007990020086307980168C86820F0100015
:10383000C8600798BDF80010FFF778FEFFE71FE0AB
:103840009DF81800000600280AD5FFE79DF814002F
:103850000006002804D5FFE7079801F0B7FB0FE04A
:103860009DF81800400600280AD5FFE79DF81400CF
:103870004006002804D5FFE7079801F05DFAFFE74E
:1038800008B080BD80B582B00090009820B9FFE7F5
:1038900001208DF807003EE00098806908B1FFE73D
:1038A00000E0FFE7009890F83D0040B9FFE700997D
:1038B000002081F83C00009800F032F8FFE7009902
:1038C000242081F83D0000980168C86820F4005069
:1038D000C860009801F0EAFA00980168086920F4CD
:1038E0009040086100980168486920F02A0048610A
:1038F00000980168C86840F40050C8600099002032
:103900000864009A202182F83D10009A82F83E1047
:103910008DF80700FFE79DF8070002B080BD0000AA
:1039200080B596B0159000201490139012901190CD
:103930001598006843F60001C4F20101884240F086
:103940009B80FFE7FFE741F21800C4F20200016824
:1039500041F480410160006800F4804010901098AC
:10396000FFE7FFE741F21800C4F20200016841F0EE
:1039700008010160006800F008000F900F98FFE751
:1039800040201190022012900320149040F6004035
:10399000C4F201000A9011A90B91FDF741FD0A98AC
:1039A0000B9980221192002212921392FDF738FD9A
:1039B000FFE70421C4F2010108680E900E9840F060
:1039C000E0600E900E9840F004000E900E98086093
:1039D000FFE740F29800C2F2000009905821C4F2BB
:1039E000020101600021416081608022C2600161AA
:1039F000416120228261C161FDF7BAFC18B1FFE785
:103A0000FDF79EFAFFE7FFE7159840F29801C2F232
:103A10000001816315984862FFE740F2DC00C2F2C2
:103A2000000008904421C4F20201016010214160AD
:103A3000002181608022C260016141612022826197
:103A4000C161FDF795FC18B1FFE7FDF779FAFFE7D3
:103A5000FFE7159840F2DC01C2F2000141631598BE
:103A60004862FFE72520079000221146FDF748FF36
:103A70000798FDF73BFF95E01598006844F60001B4
:103A8000C4F20001884240F08C80FFE7FFE741F27A
:103A90001C00C4F20200016841F48021016000684A
:103AA00000F480200D900D98FFE7FFE741F2180029
:103AB000C4F20200016841F008010160006800F0F2
:103AC00008000C900C98FFE74FF4806011900220E2
:103AD00012900320149040F60040C4F201000390BD
:103AE00011A90491FDF79CFC039804994FF400621E
:103AF00011920022059212921392FDF791FC059902
:103B000040F22010C2F2000006903022C4F20202FD
:103B10000260416081608022C26001614161816117
:103B2000C161FDF725FC18B1FFE7FDF709FAFFE7D2
:103B3000FFE7159840F22011C2F200018163159849
:103B40004862FFE740F26410C2F2000002901C21BC
:103B5000C4F20201016010214160002181608022D5
:103B6000C2600161416120228261C161FDF700FCF8
:103B700018B1FFE7FDF7E4F9FFE7FFE7159840F21A
:103B80006411C2F20001416315984862FFE72720E3
:103B9000019000221146FDF7B3FE0198FDF7A6FE45
:103BA000FFE7FFE716B080BD80B584B002900191B9
:103BB000ADF80220029890F83E00202828D1FFE7B7
:103BC000019820B1FFE7BDF8020020B9FFE701200E
:103BD0008DF80F0020E0FFE7029890F83C000128E4
:103BE00004D1FFE702208DF80F0015E002990120B3
:103BF00081F83C00FFE7FFE7029900200863029884
:103C00000199BDF8022001F0AFF98DF80F0003E033
:103C100002208DF80F00FFE79DF80F0004B080BD73
:103C200080B582B00190019840F2C421C2F2000137
:103C3000884207D1FFE740F21000C2F20000FDF712
:103C40009BF8FFE7019840F28021C2F20001884210
:103C500008D1FFE740F20830C2F200000078FCF71C
:103C6000B3FEFFE702B080BD80B58AB0089007912F
:103C7000ADF81A20059300200290089890F83D00B6
:103C8000202840F09080FFE7079820B1FFE7BDF8BB
:103C90001A0020B9FFE701208DF8270087E0FFE731
:103CA000089890F83C00012804D1FFE702208DF825
:103CB00027007CE00899012081F83C00FFE7FFE73E
:103CC0000899002008640899212081F83D00FDF73B
:103CD0007BFD0290BDF81A0008998884BDF81A008F
:103CE0000899C88408988068B0F5805F09D1FFE71B
:103CF0000898006928B9FFE700200490079803900E
:103D000004E00798049000200390FFE7FFE708997C
:103D1000002081F83C00FFE7FFE70898C08C58B30B
:103D2000FFE70898029B05996A46116080210022EE
:103D300001F096F920B1FFE703208DF8270036E067
:103D4000049858B9FFE7039800886FF35F2008993B
:103D50000968486003980230039008E004980078EE
:103D6000089909684860049801300490FFE70899B1
:103D7000C88C0138C884D0E70898029B05996A4628
:103D800011604021002201F06BF920B1FFE7032010
:103D90008DF827000BE00899202081F83D000020D5
:103DA0008DF8270003E002208DF82700FFE79DF83B
:103DB00027000AB080BD000081B0009001B07047BC
:103DC000FFE7FEE780B58CB00B900A9109920A9844
:103DD0000B9988610B990191086800908869C969FD
:103DE000FCF704FA01460098FCF706FA0199C8604E
:103DF0000B99029148688969FCF7FEF902990861FC
:103E00000B9806908168059181690391C169006AE8
:103E100004900846FCF798F901460398FCF7E6F988
:103E20000499FCF791F901460598FCF7E5F9069924
:103E300048610B9AD068116952690792FCF784F9BE
:103E40000799FCF781F901460898FCF77DF908907D
:103E50000B99C86908620B998869C8610898099923
:103E6000FCF7E1FA18B9FFE709980890FFE708980E
:103E70000021FCF7F4FA18B9FFE700200890FFE7EB
:103E800008980CB080BD000080B586B0FFE741F215
:103E90001400C4F20200016841F0010101600068F1
:103EA00000F0010005900598FFE70C20009000222B
:103EB00003921146FDF724FD0098FDF717FD039AC4
:103EC0000D2001901146FDF71BFD0198FDF70EFD39
:103ED000039A0E2002901146FDF712FD0298FDF79D
:103EE00005FD039A0F2004901146FDF709FD049883
:103EF000FDF7FCFC06B080BD80B592B000201190AB
:103F000010900F900E90FFE741F21800C4F20200EB
:103F1000016841F010010160006800F010000D9090
:103F20000D98FFE7FFE741F21800C4F202000168B4
:103F300041F020010160006800F020000C900C9816
:103F4000FFE7FFE741F21800C4F20200016841F008
:103F500008010160006800F008000B900B98FFE773
:103F6000FFE741F21800C4F20200016841F00401C9
:103F70000160006800F004000A900A98FFE741F22F
:103F80000000C4F2010001904FF4005100910022A2
:103F90000592FDF701FC059A40F60000C4F201000D
:103FA00002904FF400410391FDF7F6FB059A40F6AD
:103FB0000040C4F20100079038210991FDF7ECFBA5
:103FC000009A019805990E92012204920F92109185
:103FD0000221069111910EA90891FDF721FA059A87
:103FE000079808994FF470430E930F921092FDF7C3
:103FF00017FA0298DDF810C0059B069A0899DDF8BB
:104000000CE0CDF838E0CDF83CC010931192FDF7EC
:1040100007FADDF810C0059B069A07980899DDF8A5
:1040200024E0CDF838E0CDF83CC010931192FDF7B4
:10403000F7F912B080BD000080B588B00021009172
:1040400007910691059104910391029140F2A81005
:10405000C2F20000019042F60042C4F20102026086
:104060004722426081604FF6FF72C2600161416188
:104070008161FEF725FD18B1FFE7FCF761FFFFE75F
:1040800000200690079040F2A810C2F2000006A996
:10409000FEF76EF918B1FFE7FCF752FFFFE70022C9
:1040A0000292012003900492059240F2A810C2F2FD
:1040B000000002A9FEF778FC18B1FFE7FCF740FF0B
:1040C000FFE740F2A810C2F2000002A90422FEF7A6
:1040D0006BFC18B1FFE7FCF733FFFFE740F2A810D5
:1040E000C2F2000002A90822FEF75EFC18B1FFE749
:1040F000FCF726FFFFE740F2A810C2F2000002A979
:104100000C22FEF751FC18B1FFE7FCF719FFFFE79F
:1041100008B080BD80B588B000210191079106915B
:10412000059104910391029140F2F010C2F2000057
:104130004FF08042026040F2CF22426081604FF433
:10414000FA62C26001618161FEF780F918B1FFE790
:10415000FCF7F6FEFFE74FF48050049040F2F010B9
:10416000C2F2000004A9FEF75FFA18B1FFE7FCF7FE
:10417000E7FEFFE700200290039040F2F010C2F249
:10418000000002A9FEF7F4F818B1FFE7FCF7D8FE2B
:10419000FFE708B080BD000080B58EB0002100911F
:1041A0000D910C910B910A9109910891079106913B
:1041B0000591049103910291019140F23820C2F2DD
:1041C000000040F60002C4F2000202604722426092
:1041D00081604FF47A72C26001618161FEF736F945
:1041E00018B1FFE7FCF7ACFEFFE74FF480500A90F0
:1041F00040F23820C2F200000AA9FEF715FA18B101
:10420000FFE7FCF79DFEFFE740F23820C2F2000016
:10421000FFF71EF818B1FFE7FCF792FEFFE700205A
:104220000890099040F23820C2F2000008A9FEF779
:104230009FF818B1FFE7FCF783FEFFE760200190CD
:10424000002002900390059040F23820C2F2000056
:1042500001A90822FEF762FF18B1FFE7FCF770FE24
:10426000FFE740F23820C2F2000001A90C22FEF75D
:1042700055FF18B1FFE7FCF763FEFFE740F2382077
:10428000C2F20000FEF716FF0EB080BD80B582B00E
:1042900040F28020C2F20000019043F60001C4F217
:1042A000010101604FF4E131416000218160C16092
:1042B00001610C2242618161C161FFF7E3FA18B12B
:1042C000FFE7FCF73DFEFFE702B080BD80B582B09E
:1042D00040F2C420C2F20000019044F60001C4F292
:1042E000000101604FF4E131416000218160C16053
:1042F00001610C2242618161C161FFF7C3FA18B10B
:10430000FFE7FCF71DFEFFE702B080BDFFE7FEE719
:10431000FFE7FEE788B0079006910592079800F046
:10432000070004900498C0F10700052803D3FFE7B5
:104330000420019004E00498C0F107000190FFE719
:104340000198039004980430062803D8FFE7002062
:10435000009003E0049803380090FFE70098029073
:1043600006980399012202FA01F101390840029BE3
:10437000984005999A40013A1140084308B07047A7
:1043800080B58CB00B900A91099208930A980B990A
:1043900088610B9806908169406AFBF7D5FE069903
:1043A00048620B98406A4FF08241FCF74AF828B9FE
:1043B000FFE70B994FF082404862FFE70B990191AC
:1043C00008688969FBF718FF0199C8600B99029189
:1043D0004868496AFBF710FF029908610B9904913C
:1043E000886803908869C969FBF700FF0146039854
:1043F000FBF702FF049948610B998869C8610B9A21
:10440000D068116952690592FBF79EFE0599FBF78A
:104410009BFE079007980899FCF705F818B9FFE785
:1044200008980790FFE707980999FCF718F818B95A
:10443000FFE709980790FFE707980CB080BD0000E0
:104440007047000082B00190019840F20401C2F26E
:1044500000010968C90844F6D352C1F26202A1FB07
:104460000221890948430090FFE700BFFFE7009859
:10447000411E00910028F8D1FFE702B0704700000C
:104480007047000080B582B0009000980138B0F10C
:10449000807F03D3FFE70120019019E000980138E5
:1044A0004EF21401CEF2000108604FF0FF300F21F0
:1044B00000F0E2FE4EF21801CEF20001002008608A
:1044C0004EF21002CEF20002072111600190FFE7C8
:1044D000019802B080BD000080B5FDF77BF980BD7A
:1044E00080B590B006A800902821FBF722FE009826
:1044F00000230593049303930293019301220692F0
:104500004FF48031079108930A9202220D920E9186
:104510004FF4E0110F91FDF7DDFB18B1FFE7FCF759
:104520000FFDFFE70F200190022102910020039070
:104530004FF480620492059001A8FDF703FA18B1C8
:10454000FFE7FCF7FDFCFFE710B080BD70470000FF
:1045500080B540F2A810C2F20000FEF76DFC80BDED
:1045600080B540F2F010C2F20000FEF765FC80BD9D
:1045700080B540F23820C2F20000FEF75DFC80BD3D
:1045800083B002900191029800680090029842F670
:104590000041C4F20101884215D0FFE70298B0F152
:1045A000804F10D0FFE7029840F20041C4F20001B2
:1045B000884208D0FFE7029840F60001C4F20001EB
:1045C00088420AD1FFE7009820F07000009001981F
:1045D0004168009808430090FFE7029842F60041C6
:1045E000C4F20101884215D0FFE70298B0F1804F74
:1045F00010D0FFE7029840F20041C4F20001884267
:1046000008D0FFE7029840F60001C4F2000188429A
:104610000AD1FFE7009820F4407000900198C1682B
:10462000009808430090FFE7009820F0800001996F
:1046300049690843009000980299086001988068D1
:104640000299C8620198006802998862029842F64D
:104650000041C4F20101884205D1FFE701980069D9
:1046600002990863FFE702990120486103B070478F
:1046700084B0039002910192029800F01F01012082
:1046800088400090009A0399086A90430862019854
:10469000029901F01F0100FA01F20399086A104320
:1046A000086204B07047000085B004900391029244
:1046B0000193049880680090009820F47F40009057
:1046C00003980299019A41EA0221014300980843A4
:1046D000009000980499886005B0704783B00290FC
:1046E0000191029880680090009820F0700000907E
:1046F00001980099084340F0070000900098029943
:10470000886003B07047000085B00490039104995D
:10471000086A20F0010008620498006A0190049879
:1047200040680090049880690290029820F0700020
:104730000290029820F0030002900398016802980A
:1047400008430290019820F00200019003988168CC
:10475000019808430190049842F60041C4F2010117
:1047600088420ED1FFE7019820F0080001900398DD
:10477000C168019808430190019820F0040001905D
:10478000FFE7049842F60041C4F20101884213D1C8
:10479000FFE7009820F480700090009820F40070EB
:1047A000009003984169009808430090039881693C
:1047B000009808430090FFE7009804994860029829
:1047C00004998861039840680499486301980499A2
:1047D000086205B07047000085B004900391049909
:1047E000086A20F0100008620498006A019004989A
:1047F00040680090049880690290029820F4E0409C
:104800000290029820F44070029003980168029888
:1048100040EA01200290019820F0200001900398C6
:104820008168019840EA01100190049842F6004125
:10483000C4F2010188420FD1FFE7019820F0800007
:1048400001900398C168019840EA01100190019815
:1048500020F040000190FFE7049842F60041C4F2C6
:104860000101884215D1FFE7009820F48060009094
:10487000009820F40060009003984169009840EA95
:104880008100009003988169009840EA81000090BF
:10489000FFE700980499486002980499886103989A
:1048A00040680499886301980499086205B07047CC
:1048B00085B0049003910499086A20F4807008621E
:1048C0000498006A01900498406800900498C069B8
:1048D0000290029820F070000290029820F00300ED
:1048E000029003980168029808430290019820F40E
:1048F0000070019003988168019840EA01200190BE
:10490000049842F60041C4F2010188420FD1FFE74A
:10491000019820F4006001900398C168019840EA72
:1049200001200190019820F480600190FFE7049835
:1049300042F60041C4F20101884215D1FFE7009818
:1049400020F480500090009820F4005000900398CC
:104950004169009840EA011000900398816900982D
:1049600040EA01100090FFE700980499486002981F
:104970000499C861039840680499C8630198049930
:10498000086205B07047000085B004900391049957
:10499000086A20F4805008620498006A0190049824
:1049A000406800900498C0690290029820F4E040AA
:1049B0000290029820F440700290039801680298D7
:1049C00040EA01200290019820F4005001900398E1
:1049D0008168019840EA01300190049842F6004154
:1049E000C4F2010188420BD1FFE7009820F4804017
:1049F000009003984169009840EA81100090FFE719
:104A000000980499486002980499C8610398406826
:104A10000499086401980499086205B07047000081
:104A200085B00490039102920498006A0090049962
:104A3000086A20F0010008620498806901900198DA
:104A400020F0F00001900299019840EA01100190D5
:104A5000009820F00A000090039900980843009005
:104A600001980499886100980499086205B070471C
:104A700087B006900591049203930699086A20F086
:104A8000010008620698806902900698006A019009
:104A90000699012042F60042C4F2010291420090C0
:104AA0001CD0FFE706990120B1F1804F009015D08E
:104AB000FFE70699012040F20042C4F20002914251
:104AC00000900BD0FFE706984FF60001CBF6FF7180
:104AD0000844B0FA80F040090090FFE70098C00752
:104AE00048B1FFE7029820F0030002900499029871
:104AF0000843029004E0029840F001000290FFE7B2
:104B0000029820F0F000029003980001C1B20298D0
:104B100008430290019820F00A000190059800F0E7
:104B20000A0101980843019002980699886101984A
:104B30000699086207B0704785B00490039102920D
:104B40000499086A20F010000862049880690190B6
:104B50000498006A0090019820F470400190029936
:104B6000019840EA01300190009820F0A0000090E8
:104B70000399009840EA0110009001980499886117
:104B800000980499086205B07047000086B005904F
:104B90000491039202930599086A20F010000862BC
:104BA0000598806901900598006A0090019820F4AA
:104BB000407001900399019840EA0120019001980A
:104BC00020F4704001900298000381B201980843DC
:104BD0000190009820F0A0000090049800F00A01D5
:104BE000009840EA011000900198059988610098AA
:104BF0000599086206B0704786B00590049103924B
:104C000002930599086A20F4807008620598C069CB
:104C100001900598006A0090019820F0030001902F
:104C20000399019808430190019820F0F000019049
:104C300002980001C1B2019808430190009820F445
:104C400000700090049800F00201009840EA0120F2
:104C5000009001980599C86100980599086206B00E
:104C60007047000086B00590049103920293059965
:104C7000086A20F4805008620598C0690190059880
:104C8000006A0090019820F4407001900399019807
:104C900040EA01200190019820F4704001900298B0
:104CA000000381B2019808430190009820F400505D
:104CB0000090049800F00201009840EA0130009052
:104CC00001980599C86100980599086206B0704777
:104CD00080B582B001900198406A00900099002050
:104CE000C8850099C8840098FEF726FC02B080BDF4
:104CF00081B0009000980168C86820F49070C86086
:104D000000980168486920F0010048610098006B34
:104D1000012807D1FFE700980168C86820F010005B
:104D2000C860FFE70099202081F83E00009900202C
:104D3000086301B07047000080B582B0019001980F
:104D40000168C86820F04000C8600199202081F8FF
:104D50003D000198FFF730F8002002B080BD000050
:104D600080B586B00490049890F83E00222840F068
:104D70009480FFE704988068B0F5805F15D1FFE765
:104D80000498006988B9FFE7002003900498806ABE
:104D900002900498006840686FF35F2002990880D1
:104DA0000499886A0230886225E00498806A03903A
:104DB0000020029004988068B0F5805F08D0FFE77B
:104DC0000498806850B9FFE70498006930B9FFE79C
:104DD0000498006840680399087007E00498006828
:104DE000406800F07F0003990870FFE70499886A23
:104DF00001308862FFE70499C88D0138C885000436
:104E0000002846D1FFE704980168C86820F0200018
:104E1000C86004980168C86820F48070C86004986D
:104E20000168486920F0010048610499202081F858
:104E30003E000498006B012823D1FFE7049900206D
:104E4000086304980168C86820F01000C8600498DE
:104E500000680068C00600280ED5FFE7FFE70020C5
:104E60000190049800680068019004980068406808
:104E700001900198FFE7FFE70498818DFEF756FB4C
:104E800003E00498FEF7CCFEFFE700208DF8170042
:104E900007E000208DF8170003E002208DF81700CE
:104EA000FFE79DF8170006B080BD000080B584B014
:104EB000039003980068006920F44050039A116839
:104EC000D26810430861039988680A6949691043E8
:104ED0000843029003980068C06841F20C6188435F
:104EE0000299084303990968C860039800684069FB
:104EF00020F44070039A1168926910434861039846
:104F0000006843F60001C4F20101884204D1FFE7C2
:104F1000FCF75CFE019003E0FCF746FE0190FFE722
:104F2000019819214843039A116852689200B0FB16
:104F3000F2FC48F21F52C5F2EB12ACFB02304309FF
:104F4000642003FB10CC322000EB0C10A0FB02020B
:104F5000F02000EA521000EB0310C2F34312104499
:104F6000886004B080BD000083B002900191ADF86C
:104F70000220019802998862BDF802000299888592
:104F8000BDF802000299C8850299002008640299C0
:104F9000222081F83E00FFE70299002081F83C00C2
:104FA000FFE702980168C86840F48070C860029802
:104FB0000168486940F00100486102980168C868CA
:104FC00040F02000C860002003B0704783B001901B
:104FD000019890F83D0021283AD1FFE701988068B8
:104FE000B0F5805F13D1FFE70198006978B9FFE75A
:104FF0000198006A0090009800886FF35F20019983
:10500000096848600199086A0230086208E0019A5C
:10501000106A411C11620078019909684860FFE735
:105020000199C88C0138C884000468B9FFE7019869
:105030000168C86820F08000C86001980168C868ED
:1050400040F04000C860FFE700208DF80B0003E04F
:1050500002208DF80B00FFE79DF80B0003B07047AE
:1050600080B586B0DDF820C0049003918DF80B2048
:105070000193FFE704980068006803990840401A0C
:10508000B0FA80F040099DF80B1088422ED1FFE75E
:105090000898013048B3FFE7089840B1FFE7FCF7F4
:1050A00093FB0199401A089988421DD9FFE704989B
:1050B0000168C86820F4D070C86004980168486925
:1050C00020F0010048610499202081F83D000499F6
:1050D00081F83E00FFE70499002081F83C00FFE7DB
:1050E00003208DF8170005E0FFE7C3E700208DF8E7
:1050F0001700FFE79DF8170006B080BD80B540F2AD
:105100008020C2F20000FEF71BFA80BD80B540F29D
:10511000C420C2F20000FEF713FA80BDFFE7FEE7ED
:1051200080B586B0059004910498B0F57A7F04DDCF
:10513000FFE74FF47A700490FFE7049810F57A7F48
:1051400006DAFFE74FF61840CFF6FF700490FFE74E
:105150000498002803D4FFE701200390FFE7049898
:10516000B0F1FF3F03DCFFE700200390FFE7059865
:105170000290032804D0FFE7029804282BD058E0BF
:105180000398019020B1FFE70198012812D021E097
:10519000049800F57A7040F23821C2F200010968E3
:1051A000C86340F60040C4F2010008210122FCF768
:1051B000F3FA0FE0049840F23821C2F200010968C6
:1051C000C86340F60040C4F2010008210022FCF749
:1051D000E3FAFFE72DE00398009020B1FFE7009885
:1051E000012812D024E00498404240F23821C2F253
:1051F00000010968086440F60000C4F201004FF4A1
:1052000000410022FCF7C8FA12E00498C0F57A7059
:1052100040F23821C2F200010968086440F600003B
:10522000C4F201004FF400410122FCF7B5FAFFE798
:10523000FFE706B080BD000081B08DF803009DF946
:10524000030000280ED4FFE79DF9031001F01F02B0
:10525000012090404A094EF20011CEF2000141F8BF
:105260002200FFE701B070474EF60C50CEF200006E
:105270000068C0F30220704782B08DF807000091EB
:105280009DF9070000280AD4FFE7009800019DF966
:1052900007104EF20042CEF2000288540BE0009854
:1052A00000019DF8071001F00F014EF61452CEF2E6
:1052B00000028854FFE702B07047000083B00290FC
:1052C000029800F0070000904EF60C51CEF200015B
:1052D0000868019001984FF6FF0210400190019874
:1052E000009A40EA02200022C0F2FA5210430190D4
:1052F0000198086003B0704780B582B001900091BA
:1053000040F28020C2F2000001A901220A23FEF728
:10531000ABFC019802B080BD2DE9F04F8FB0009139
:10532000014600980191DDF884B0DDF880A0DDF839
:105330007C90DDF878801D9F1C9E1B9D1A9CDDF8DB
:1053400064E0DDF860C00199CDF838B0CDF834A044
:10535000CDF83090CDF82C800A97099608950794DF
:10536000CDF818E0CDF814C004900392029304988D
:1053700005900398069002980790002008900990E5
:105380000A900C900B900D900E900598069A079B32
:10539000DDF820C0DDF824E00A9C4C61C1F810E083
:1053A000C1F80CC08B604A6008600B980C9A0D9B8A
:1053B000DDF838C0C1F824C00B62CA6188610FB043
:1053C000BDE8F08F2DE9F041B8B00020169037907D
:1053D000FCF70EFAFFF784F8FEF78EFDFEF756FF96
:1053E000FEF72AFEFEF796FEFEF74EFDFEF76EFF75
:1053F000FEF7D2FE40F28020C2F2000040F20831F7
:10540000C2F200010122FEF7CFFB40F2C420C2F23B
:10541000000040F21001C2F2000104221792FEF7D0
:10542000C3FB40F23820C2F200000C9008210D911D
:10543000FDF764FF0C980C210E91FDF75FFF0C98AF
:10544000FDF79AF840F2F010C2F20000FDF794F870
:10545000169940F2A810C2F200000F90FDF7C8FBA9
:1054600017990F98FDF7C4FB0D990F98FDF7C0FB36
:105470000E990F98FDF7BCFB40F23831C2F20001E3
:10548000119108684A688B68D1F80CC0D1F810E017
:105490004C698D69CE690F6AD1F8248069461091F4
:1054A000C1F824800F62CE618D614C61C1F810E0BB
:1054B000C1F80CC08B604A6008602DA80021C4F2BE
:1054C00048210022C4F216320023C4F2E003FFF7A1
:1054D00023FF11992D982E9A2F9BDDF8C0C0DDF87F
:1054E000C4E0329C4C61C1F810E0C1F80CC08B6084
:1054F0004A6008603398349A359BDDF8D8C0C1F80B
:1055000024C00B62CA61886140F26031C2F20001BE
:10551000139108684A688B68D1F80CC0D1F810E084
:105520004C698D69CE690F6AD1F824806946129161
:10553000C1F824800F62CE618D614C61C1F810E02A
:10554000C1F80CC08B604A60086023A80021C4F237
:10555000A01146F26662C4F22E1243F23333C4F253
:10556000D303FFF7D9FE13992398249A259BDDF8DE
:1055700098C0DDF89CE0289C4C61C1F810E0C1F8AF
:105580000CC08B604A60086029982A9A2B9BDDF832
:10559000B0C0C1F824C00B62CA61886140F2380112
:1055A000C2F20001159108684A688B68D1F80CC0F6
:1055B000D1F810E04C698D69CE690F6AD1F824806A
:1055C00069461491C1F824800F62CE618D614C61EF
:1055D000C1F810E0C1F80CC08B604A60086019A8DF
:1055E00049F69A11C3F619614CF6CD42C3F64C52F6
:1055F0004CF6CD43C3F6CC53FFF78EFE159A1699A1
:1056000019981A9BDDF86CC0DDF870E01D9C1E9D9A
:1056100055611461C2F80CE0C2F808C05360106014
:105620001F98209BDDF884C0DDF888E0C2F824E0F4
:10563000C2F820C0D361906140F20C33C2F2000383
:105640000020C4F2A020186040F27000C2F20000F6
:1056500018904161016140F20802C2F20002D2F8E2
:1056600000C0C3F810C012685A6101624162406A0A
:10567000FAF711FF01461798FFF752FD1898006AD4
:10568000FAF709FF01460320FFF74AFDFFE740F262
:105690007000C2F200000B90406AFAF7FCFE01466F
:1056A0000420FFF73DFD0B98006AFAF7F4FE01466F
:1056B0000320FFF735FDEAE783B002900020019058
:1056C0000090FFE7009802282EDCFFE7029800997F
:1056D000405C392823DCFFE702980099405C3028C1
:1056E0001DDBFFE702980099405C019908443038BF
:1056F0000190029900980844407839280DDCFFE7B2
:105700000299009808444078302806DBFFE70198AA
:1057100000EB80004000019000E005E0FFE7FFE7BC
:10572000009801300090CDE7019803B07047000069
:105730000FB4054B10B503A9044A029800F0DAF83B
:1057400010BC5DF814FB0000F952000800000020B6
:1057500002E008C8121F08C1002AFAD1704770473A
:10576000002001E001C1121F002AFBD17047000098
:105770002DE9FF5F82B00021DDE90430020DDDF884
:1057800040B0034318D044F61050A2F2FF32424317
:105790001514119801281FD0A5EB0B00401C5FEADF
:1057A000000A4FF000064E4FDFF83891B0465046E1
:1057B00015D5CAF1000413E0119801244AA3012869
:1057C00001D16FEA0B010298119AC0E90031C0E9DA
:1057D000024206B0BDE8F09FCBF10000DFE70446CF
:1057E0000021404A491842EB0450CDE9001012E074
:1057F000E00707D032463B4640464946FAF78FFF5E
:105800008046894632463B4610461946FAF787FFDE
:1058100006460F466410002CEAD1DDE90401DDE9FB
:105820000023BAF1000F06DAFAF779FF42464B4639
:10583000FAF775FF05E0FAF7E4FF42464B46FAF740
:10584000E0FF04460E460022284BFBF761F803D820
:105850004FF0FF30014607E00022254B204631463D
:10586000FAF73AFDFBF73CF8102409E0002C0ADBBC
:105870000A220023FAF76DFE039B30321A55641E8C
:1058800050EA0102F2D1641C039AC4F111031444DA
:10589000119A012A03D0012208430DD10AE00843DE
:1058A00004D000204FF0110B119072E7A3EB0B0511
:1058B0006D1E0DE05B4504DD4FF0000205F10105B2
:1058C00004E003DA4FF00002A5F10105002AECD054
:1058D00002981199C0E90231C0E9004579E700005A
:1058E000000014400000F03F300000000000F043D2
:1058F0000000E03F2DE9FF4F95B09B4689460646E4
:1059000000250FE2252877D100242746F84A0121F7
:10591000059400E0044316F8013F203B01FA03F030
:105920001042F7D130782A2811D06FF02F03307849
:10593000A0F13002092A16D8059A44F0020402EBBD
:10594000820203EB42021044761C0590EFE759F8FF
:10595000042B0592002A03DA504244F400540590C7
:1059600044F00204761C30782E2816D116F8010F68
:1059700044F004042A280DD06FF02F023078A0F1F3
:105980003003092B09D807EB870302EB4303C71841
:10599000761CF3E759F8047B761C30786C280FD01E
:1059A00006DC4C2817D068280DD06A2814D104E0F2
:1059B000742810D07A280FD10DE044F400140AE0C6
:1059C00044F4801401E044F440147278824202D11D
:1059D00004F58014761C761C307866280BD013DC16
:1059E000582877D009DC002875D04528F6D04628FD
:1059F000F4D047281AD19DE118E0632835D06428F7
:105A000079D0652812D195E1702873D008DC672819
:105A1000F1D069286FD06E280DD06F2806D1B5E07F
:105A200073282CD0752875D0782874D05A461799C9
:105A300090476D1C75E1C4F30250022809D0032879
:105A40000DD0D9F8001004280DD00D6009F104091B
:105A500067E1D9F80010EA17C1E90052F6E7D9F872
:105A600000100D80F2E70D70F0E719F8041B8DF8B7
:105A7000001000208DF80100EA46012003E059F8EB
:105A800004AB4FF0FF3061074FF0000102D40DE08E
:105A900008F101018846B9420FDA8045F8DB1AF8AF
:105AA00008100029F4D108E008F10101884681427C
:105AB000FADB1AF808100029F6D105985B46A0EB2E
:105AC000080721463846179A00F094FA284400EB5C
:105AD000080507E04DE029E10DE01AF8010B5A46F0
